{
  "_format": "hh-sol-artifact-1",
  "contractName": "FakeAccountRegistry",
  "sourceName": "contracts/FakeAccountRegistry.sol",
  "abi": [
    {
      "anonymous": false,
      "inputs": [
        {
          "indexed": true,
          "internalType": "uint256",
          "name": "reportId",
          "type": "uint256"
        },
        {
          "indexed": false,
          "internalType": "string",
          "name": "profileURL",
          "type": "string"
        },
        {
          "indexed": false,
          "internalType": "string",
          "name": "platform",
          "type": "string"
        },
        {
          "indexed": false,
          "internalType": "string",
          "name": "verdict",
          "type": "string"
        },
        {
          "indexed": true,
          "internalType": "address",
          "name": "officerWallet",
          "type": "address"
        },
        {
          "indexed": false,
          "internalType": "uint256",
          "name": "timestamp",
          "type": "uint256"
        }
      ],
      "name": "ReportLogged",
      "type": "event"
    },
    {
      "inputs": [],
      "name": "getAllReports",
      "outputs": [
        {
          "components": [
            {
              "internalType": "uint256",
              "name": "reportId",
              "type": "uint256"
            },
            {
              "internalType": "string",
              "name": "profileURL",
              "type": "string"
            },
            {
              "internalType": "string",
              "name": "platform",
              "type": "string"
            },
            {
              "internalType": "string",
              "name": "verdict",
              "type": "string"
            },
            {
              "internalType": "address",
              "name": "officerWallet",
              "type": "address"
            },
            {
              "internalType": "uint256",
              "name": "timestamp",
              "type": "uint256"
            }
          ],
          "internalType": "struct FakeAccountRegistry.FakeAccountReport[]",
          "name": "",
          "type": "tuple[]"
        }
      ],
      "stateMutability": "view",
      "type": "function"
    },
    {
      "inputs": [
        {
          "internalType": "uint256",
          "name": "reportId",
          "type": "uint256"
        }
      ],
      "name": "getReport",
      "outputs": [
        {
          "components": [
            {
              "internalType": "uint256",
              "name": "reportId",
              "type": "uint256"
            },
            {
              "internalType": "string",
              "name": "profileURL",
              "type": "string"
            },
            {
              "internalType": "string",
              "name": "platform",
              "type": "string"
            },
            {
              "internalType": "string",
              "name": "verdict",
              "type": "string"
            },
            {
              "internalType": "address",
              "name": "officerWallet",
              "type": "address"
            },
            {
              "internalType": "uint256",
              "name": "timestamp",
              "type": "uint256"
            }
          ],
          "internalType": "struct FakeAccountRegistry.FakeAccountReport",
          "name": "",
          "type": "tuple"
        }
      ],
      "stateMutability": "view",
      "type": "function"
    },
    {
      "inputs": [
        {
          "internalType": "string",
          "name": "profileURL",
          "type": "string"
        },
        {
          "internalType": "string",
          "name": "platform",
          "type": "string"
        },
        {
          "internalType": "string",
          "name": "verdict",
          "type": "string"
        }
      ],
      "name": "logReport",
      "outputs": [
        {
          "internalType": "uint256",
          "name": "",
          "type": "uint256"
        }
      ],
      "stateMutability": "nonpayable",
      "type": "function"
    },
    {
      "inputs": [],
      "name": "reportCount",
      "outputs": [
        {
          "internalType": "uint256",
          "name": "",
          "type": "uint256"
        }
      ],
      "stateMutability": "view",
      "type": "function"
    },
    {
      "inputs": [
        {
          "internalType": "uint256",
          "name": "",
          "type": "uint256"
        }
      ],
      "name": "reports",
      "outputs": [
        {
          "internalType": "uint256",
          "name": "reportId",
          "type": "uint256"
        },
        {
          "internalType": "string",
          "name": "profileURL",
          "type": "string"
        },
        {
          "internalType": "string",
          "name": "platform",
          "type": "string"
        },
        {
          "internalType": "string",
          "name": "verdict",
          "type": "string"
        },
        {
          "internalType": "address",
          "name": "officerWallet",
          "type": "address"
        },
        {
          "internalType": "uint256",
          "name": "timestamp",
          "type": "uint256"
        }
      ],
      "stateMutability": "view",
      "type": "function"
    }
  ],
  "bytecode": "0x6080604052348015600f57600080fd5b506115888061001f6000396000f3fe608060405234801561001057600080fd5b50600436106100575760003560e01c8063185c6f841461005c5780634e7f9b191461007a5780638ce79ab4146100aa578063c942adf7146100da578063f3d3ddfa1461010f575b600080fd5b61006461012d565b6040516100719190610a8d565b60405180910390f35b610094600480360381019061008f9190610ae8565b610133565b6040516100a19190610c8c565b60405180910390f35b6100c460048036038101906100bf9190610de3565b6103d1565b6040516100d19190610a8d565b60405180910390f35b6100f460048036038101906100ef9190610ae8565b610546565b60405161010696959493929190610ee3565b60405180910390f35b61011761073a565b60405161012491906110b2565b60405180910390f35b60005481565b61013b610a28565b60008211801561014d57506000548211155b61018c576040517f08c379a000000000000000000000000000000000000000000000000000000000815260040161018390611120565b60405180910390fd5b600160008381526020019081526020016000206040518060c0016040529081600082015481526020016001820180546101c49061116f565b80601f01602080910402602001604051908101604052809291908181526020018280546101f09061116f565b801561023d5780601f106102125761010080835404028352916020019161023d565b820191906000526020600020905b81548152906001019060200180831161022057829003601f168201915b505050505081526020016002820180546102569061116f565b80601f01602080910402602001604051908101604052809291908181526020018280546102829061116f565b80156102cf5780601f106102a4576101008083540402835291602001916102cf565b820191906000526020600020905b8154815290600101906020018083116102b257829003601f168201915b505050505081526020016003820180546102e89061116f565b80601f01602080910402602001604051908101604052809291908181526020018280546103149061116f565b80156103615780601f1061033657610100808354040283529160200191610361565b820191906000526020600020905b81548152906001019060200180831161034457829003601f168201915b505050505081526020016004820160009054906101000a900473ffffffffffffffffffffffffffffffffffffffff1673ffffffffffffffffffffffffffffffffffffffff1673ffffffffffffffffffffffffffffffffffffffff1681526020016005820154815250509050919050565b60008060008154809291906103e5906111cf565b91905055506040518060c0016040528060005481526020018581526020018481526020018381526020013373ffffffffffffffffffffffffffffffffffffffff16815260200142815250600160008054815260200190815260200160002060008201518160000155602082015181600101908161046291906113c3565b50604082015181600201908161047891906113c3565b50606082015181600301908161048e91906113c3565b5060808201518160040160006101000a81548173ffffffffffffffffffffffffffffffffffffffff021916908373ffffffffffffffffffffffffffffffffffffffff16021790555060a082015181600501559050503373ffffffffffffffffffffffffffffffffffffffff166000547fcaf8d4775d62dbfde5ab81901fcc5ec427cf82d86c059eba6372ac69790797ee868686426040516105329493929190611495565b60405180910390a360005490509392505050565b600160205280600052604060002060009150905080600001549080600101805461056f9061116f565b80601f016020809104026020016040519081016040528092919081815260200182805461059b9061116f565b80156105e85780601f106105bd576101008083540402835291602001916105e8565b820191906000526020600020905b8154815290600101906020018083116105cb57829003601f168201915b5050505050908060020180546105fd9061116f565b80601f01602080910402602001604051908101604052809291908181526020018280546106299061116f565b80156106765780601f1061064b57610100808354040283529160200191610676565b820191906000526020600020905b81548152906001019060200180831161065957829003601f168201915b50505050509080600301805461068b9061116f565b80601f01602080910402602001604051908101604052809291908181526020018280546106b79061116f565b80156107045780601f106106d957610100808354040283529160200191610704565b820191906000526020600020905b8154815290600101906020018083116106e757829003601f168201915b5050505050908060040160009054906101000a900473ffffffffffffffffffffffffffffffffffffffff16908060050154905086565b60606000805467ffffffffffffffff81111561075957610758610cb8565b5b60405190808252806020026020018201604052801561079257816020015b61077f610a28565b8152602001906001900390816107775790505b5090506000600190505b6000548111610a2057600160008281526020019081526020016000206040518060c0016040529081600082015481526020016001820180546107dd9061116f565b80601f01602080910402602001604051908101604052809291908181526020018280546108099061116f565b80156108565780601f1061082b57610100808354040283529160200191610856565b820191906000526020600020905b81548152906001019060200180831161083957829003601f168201915b5050505050815260200160028201805461086f9061116f565b80601f016020809104026020016040519081016040528092919081815260200182805461089b9061116f565b80156108e85780601f106108bd576101008083540402835291602001916108e8565b820191906000526020600020905b8154815290600101906020018083116108cb57829003601f168201915b505050505081526020016003820180546109019061116f565b80601f016020809104026020016040519081016040528092919081815260200182805461092d9061116f565b801561097a5780601f1061094f5761010080835404028352916020019161097a565b820191906000526020600020905b81548152906001019060200180831161095d57829003601f168201915b505050505081526020016004820160009054906101000a900473ffffffffffffffffffffffffffffffffffffffff1673ffffffffffffffffffffffffffffffffffffffff1673ffffffffffffffffffffffffffffffffffffffff168152602001600582015481525050826001836109f191906114ef565b81518110610a0257610a01611523565b5b60200260200101819052508080610a18906111cf565b91505061079c565b508091505090565b6040518060c0016040528060008152602001606081526020016060815260200160608152602001600073ffffffffffffffffffffffffffffffffffffffff168152602001600081525090565b6000819050919050565b610a8781610a74565b82525050565b6000602082019050610aa26000830184610a7e565b92915050565b6000604051905090565b600080fd5b600080fd5b610ac581610a74565b8114610ad057600080fd5b50565b600081359050610ae281610abc565b92915050565b600060208284031215610afe57610afd610ab2565b5b6000610b0c84828501610ad3565b91505092915050565b610b1e81610a74565b82525050565b600081519050919050565b600082825260208201905092915050565b60005b83811015610b5e578082015181840152602081019050610b43565b60008484015250505050565b6000601f19601f8301169050919050565b6000610b8682610b24565b610b908185610b2f565b9350610ba0818560208601610b40565b610ba981610b6a565b840191505092915050565b600073ffffffffffffffffffffffffffffffffffffffff82169050919050565b6000610bdf82610bb4565b9050919050565b610bef81610bd4565b82525050565b600060c083016000830151610c0d6000860182610b15565b5060208301518482036020860152610c258282610b7b565b91505060408301518482036040860152610c3f8282610b7b565b91505060608301518482036060860152610c598282610b7b565b9150506080830151610c6e6080860182610be6565b5060a0830151610c8160a0860182610b15565b508091505092915050565b60006020820190508181036000830152610ca68184610bf5565b905092915050565b600080fd5b600080fd5b7f4e487b7100000000000000000000000000000000000000000000000000000000600052604160045260246000fd5b610cf082610b6a565b810181811067ffffffffffffffff82111715610d0f57610d0e610cb8565b5b80604052505050565b6000610d22610aa8565b9050610d2e8282610ce7565b919050565b600067ffffffffffffffff821115610d4e57610d4d610cb8565b5b610d5782610b6a565b9050602081019050919050565b82818337600083830152505050565b6000610d86610d8184610d33565b610d18565b905082815260208101848484011115610da257610da1610cb3565b5b610dad848285610d64565b509392505050565b600082601f830112610dca57610dc9610cae565b5b8135610dda848260208601610d73565b91505092915050565b600080600060608486031215610dfc57610dfb610ab2565b5b600084013567ffffffffffffffff811115610e1a57610e19610ab7565b5b610e2686828701610db5565b935050602084013567ffffffffffffffff811115610e4757610e46610ab7565b5b610e5386828701610db5565b925050604084013567ffffffffffffffff811115610e7457610e73610ab7565b5b610e8086828701610db5565b9150509250925092565b600082825260208201905092915050565b6000610ea682610b24565b610eb08185610e8a565b9350610ec0818560208601610b40565b610ec981610b6a565b840191505092915050565b610edd81610bd4565b82525050565b600060c082019050610ef86000830189610a7e565b8181036020830152610f0a8188610e9b565b90508181036040830152610f1e8187610e9b565b90508181036060830152610f328186610e9b565b9050610f416080830185610ed4565b610f4e60a0830184610a7e565b979650505050505050565b600081519050919050565b600082825260208201905092915050565b6000819050602082019050919050565b600060c083016000830151610f9d6000860182610b15565b5060208301518482036020860152610fb58282610b7b565b91505060408301518482036040860152610fcf8282610b7b565b91505060608301518482036060860152610fe98282610b7b565b9150506080830151610ffe6080860182610be6565b5060a083015161101160a0860182610b15565b508091505092915050565b60006110288383610f85565b905092915050565b6000602082019050919050565b600061104882610f59565b6110528185610f64565b93508360208202850161106485610f75565b8060005b858110156110a05784840389528151611081858261101c565b945061108c83611030565b925060208a01995050600181019050611068565b50829750879550505050505092915050565b600060208201905081810360008301526110cc818461103d565b905092915050565b7f5265706f727420646f6573206e6f742065786973740000000000000000000000600082015250565b600061110a601583610e8a565b9150611115826110d4565b602082019050919050565b60006020820190508181036000830152611139816110fd565b9050919050565b7f4e487b7100000000000000000000000000000000000000000000000000000000600052602260045260246000fd5b6000600282049050600182168061118757607f821691505b60208210810361119a57611199611140565b5b50919050565b7f4e487b7100000000000000000000000000000000000000000000000000000000600052601160045260246000fd5b60006111da82610a74565b91507fffffffffffffffffffffffffffffffffffffffffffffffffffffffffffffffff820361120c5761120b6111a0565b5b600182019050919050565b60008190508160005260206000209050919050565b60006020601f8301049050919050565b600082821b905092915050565b6000600883026112797fffffffffffffffffffffffffffffffffffffffffffffffffffffffffffffffff8261123c565b611283868361123c565b95508019841693508086168417925050509392505050565b6000819050919050565b60006112c06112bb6112b684610a74565b61129b565b610a74565b9050919050565b6000819050919050565b6112da836112a5565b6112ee6112e6826112c7565b848454611249565b825550505050565b600090565b6113036112f6565b61130e8184846112d1565b505050565b5b81811015611332576113276000826112fb565b600181019050611314565b5050565b601f8211156113775761134881611217565b6113518461122c565b81016020851015611360578190505b61137461136c8561122c565b830182611313565b50505b505050565b600082821c905092915050565b600061139a6000198460080261137c565b1980831691505092915050565b60006113b38383611389565b9150826002028217905092915050565b6113cc82610b24565b67ffffffffffffffff8111156113e5576113e4610cb8565b5b6113ef825461116f565b6113fa828285611336565b600060209050601f83116001811461142d576000841561141b578287015190505b61142585826113a7565b86555061148d565b601f19841661143b86611217565b60005b828110156114635784890151825560018201915060208501945060208101905061143e565b86831015611480578489015161147c601f891682611389565b8355505b6001600288020188555050505b505050505050565b600060808201905081810360008301526114af8187610e9b565b905081810360208301526114c38186610e9b565b905081810360408301526114d78185610e9b565b90506114e66060830184610a7e565b95945050505050565b60006114fa82610a74565b915061150583610a74565b925082820390508181111561151d5761151c6111a0565b5b92915050565b7f4e487b7100000000000000000000000000000000000000000000000000000000600052603260045260246000fdfea2646970667358221220f4ddb2075561f93aa6c94bea43409ba8c71bc1d0f1fec7a4025c80ddeebed4af64736f6c634300081c0033",
  "linkReferences": {},
  "deployedLinkReferences": {}
}